:10052300C2AF91AAB10691E8B181D2AF910B715BD1
:060533001107110380F620
:1005060053877F759850438E40538EFE53890F4311
:0D0516008920758BFD758DFDC2ABD28E2244
:1005390051646010F5993099FDC299740129F9E463
:050549003AFA80EC22EB
:0202F200AB0758
:1002F4007E007C277D10518FEF2430F50BEBFF7EC1
:10030400007C277D10518F7E037FE8CFCDCFCECCEC
:10031400CE518FEF2430F50CEBFF7E007C037DE89B
:10032400518F7E007F64CFCDCFCECCCE518FEF24C2
:1003340030F50DEB75F06484E5F075F00A84243033
:10034400F50EEB75F00A84E5F02430F50FE4F510B2
:07035400FB7A00790BA139CF
:09058B00CAB1BCE4A3BA003A00B5
:1004AA00538E7F5389F0438901E4F58A758CDCC247
:0F04BA008DD28CD2A9751464F511F512F51322A9
:02000B008185ED
:10048500C0E0C0D0C28C758A00758CDCD28CE516B4
:10049500D3940040021516E514D3940040021514B8
:0504A500D0D0D0E032D0
:10040B00E51470407514640511E511C3943C40105C
:10041B00E4F5110512E512943C4005E4F5120513C1
:10042B007BFF7A05798BB139AF1351F27BFF7A05DC
:10043B007992B139AF1251F27BFF7A057992B139CA
:05044B00AF1151F22287
:0400030075870122DA
:0A058100E4F5E175E13843E10622DC
:0400070043E110229F
:100450000909B5B1C7B0CAAAB6C8A3BA000909BF8D
:10046000ECB8C9CBC0C1CBA3ACBFAAB7A70D0A00DB
:100470000909CBAEC1BFB3E4D7E3A3ACB2BBBFAAFB
:05048000B7A70D0A0002
:1004E80053B1F743B208C2B3439101439201D2908A
:0E04F800E4F5C675C580751664F515C2B3220D
:10054E00D297D296D295D294D293D292D291D2B74A
:05055E00D2B4D2B52269
:1003C300B14EEFC39400403FEFD3940A5039EF147A
:1003D300B40A0050329003E225E050020583738192
:1003E30008810681048102810061FE61FC61FA617A
:1003F300F861F6C297C296C295C294C293C292C2E2
:0804030091C2B7C2B4C2B522D8
:1004C900EFD394064008C2B3E4F5157F0122EFC3C8
:0F04D90094035008D2B37515017F01227F0022D2
:1005630075C58800000000E5C530E4FB53C5EFAF57
:02057300C6229E
:10035B00E516706375166430B2057509018003E408
:10036B00F509B163C374FF9FF50AFF7E007C007D26
:10037B000A517DAC06AD07E431AAE4FBFA797F782C
:10038B00433108E4FBFAF9783F111431E38F087B12
:10039B00FF7A047950B139AF0A51F2E5097BFF605E
:1003AB00087A04795DB13980067A047970B139AF76
:0703BB000871C3AF0891C9EE
:0103C2002218
:10000D0002024FE86480F8E933E83360110460F0D0
:10001D00ED33EC337009E8FCE9FDEAFEEBFF220459
:10002D0060DED3EB9FEA9EE99DE8C2E78CF0C2F754
:10003D0095F0400CE8CCF8E9CDF9EACEFAEBCFFB20
:10004D0012021A85D0F05804700320D5B3E804705D
:10005D00075002B2D502025992D5EC0460F7E4CCF8
:10006D00C0E0C398F8603B94186008400DD0E0FBE9
:10007D00020231E4FBFAC9FC8028E830E406E4C949
:10008D00FBE4CAFCE830E305E4C9CACBFCE854073D
:10009D006010F8C3E913F9EA13FAEB13FBEC13FC48
:1000AD00D8F130F52FC3E49CFCEF9BFFEE9AFEEDEB
:1000BD0099FDD0E0FBEF4E4D4C701222DB03020296
:1000CD0056EC2CFCEF33FFEE33FEED33FDED30E758
:1000DD00EB020231EF2BFFEE3AFEED39FDD0E0FBE6
:1000ED0050130BBB0003020259ED13FDEE13FEEF8F
:0800FD0013FFEC13FC020231B9
:10010500020259EC5D046005E85904700302024FD0
:1001150012021A580460F6EC4860F2EC7004FDFE19
:10012500FF22C860DB2481C85009C39860025006CD
:100135000202569850CAF582E9294B4A7005AB82EE
:1001450002024575F0007C1A7880C3EF9BEE9AEDAC
:1001550099400DC3EF9BFFEE9AFEED99FDE842F045
:10016500DC23ACF0D0E0FFD0E0FED0E0FDAB822098
:10017500E7101BEB60BAEC2CFCEF33FFEE33FEED22
:1001850033FD020231E803F830E705C0F075F000F1
:10019500EF2FFFEE33FEED33FD40B830E7C280AA06
:1001A50075F020800E75F010800575F0087D007ED5
:1001B500007F003392D530D5031202E4EC334010B2
:1001C500EF33FFEE33FEED33FDEC33FCD5F0ED22DE
:0E01D500E5F0247EA2D513CC92E7CDCEFF221A
:1001E300EDD2E7CD33EC3392D524814006E4FFFE14
:1001F300FDFC22FCE4CFCECDCC24E0501174FF8073
:10020300EDC3CC13CCCD13CDCE13CECF13CF04700F
:07021300F030D5DE0202E429
:10021A00E9D2E7C933E833F892D5EDD2E7CD33EC2A
:07022A0033FC5002B2D522A3
:10023100EC30E7100FBF000C0EBE00080DBD00042E
:100241000BEB6014A2D5EB13FCED92E7FD2274FFDA
:10025100FCFDFEFF22E480F8A2D574FF13FC7D8033
:03026100E480EF47
:0300000002057581
:0C057500787FE4F6D8FD7581160205239E
:10026400BB010689828A83E0225002E722BBFE0298
:09027400E32289828A83E49322CB
:10027D00EF8DF0A4A8F0CF8CF0A428CE8DF0A42E95
:02028D00FE224F
:10028F00BC000BBE0029EF8DF084FFADF022E4CC53
:10029F00F875F008EF2FFFEE33FEEC33FCEE9DEC1C
:1002AF00984005FCEE9DFE0FD5F0E9E4CEFD22ED62
:1002BF00F8F5F0EE8420D21CFEADF075F008EF2FAC
:1002CF00FFED33FD4007985006D5F0F222C398FD9D
:0502DF000FD5F0EA223A
:0E02E400C3E49FFFE49EFEE49DFDE49CFC222B
:00000001FF
