:10024A00C2AF31D431F45126D2AF31AB317C80FA0E
:1001F400438780759850438E40538EFE53890F4336
:0D0204008920758BD9758DD9C2ABD28E22A1
:10021100110D6010F5993099FDC299740129F9E425
:050221003AFA80EC2216
:02007B00AB07D1
:10007D007E007C277D101126EF2430F50AEBFF7EE4
:10008D00007C277D1011267E037FE8CFCDCFCECC0F
:10009D00CE1126EF2430F50BEBFF7E007C037DE8BF
:1000AD0011267E007F64CFCDCFCECCCE1126EF248E
:1000BD0030F50CEB75F06484E5F075F00A842430AE
:1000CD00F50DEB75F00A84E5F02430F50EE4F50F2F
:0700DD00FB7A00790A4111D2
:050003003A000D0A00A7
:1001D400438E805389F0438901758A74758C20C2DB
:1001E4008DD28CD2A9751364E4F510F511F51222A1
:02000B00213999
:10013900C0E0C0D0C28C758A7A758C20D28CE51447
:10014900D3940040021514E513D394004004151309
:10015900801C7513640510E510C3943C401075109C
:10016900000511E511943C40057511000512D0D028
:03017900D0E032A1
:1001AB00E5137024AF12117B7BFF7A007903511199
:1001BB00AF11117B7BFF7A0079035111AF10117BCB
:0901CB007BFF7A00790551112235
:050266003A000D0A0042
:10022600439101439201D290E4F5C675C5807514D9
:02023600642240
:1000E400EFC39400404EEFD394095048D297D29670
:1000F400D295D294D293D292D291D2B7D2B4D2B56D
:10010400EFB40A00502E90011025E07321362134FB
:1001140021322130212E212C212A2128212621247B
:10012400C297C296C295C294C293C292C291C2B7F8
:05013400C2B4C2B522B7
:1002380075C58800000000E5C530E4FB53C5EFAF85
:02024800C622CC
:10017C00E514702A75146430B2057509018003E426
:10018C00F509AF08117B7BFF7A0279665111AF0933
:0E019C00117B7BFF7A0279685111AF0811E4E4
:0101AA002232
:0300000002025A9F
:0C025A00787FE4F6D8FD75811402024A9A
:10000D00BB010689828A83E0225002E722BBFE02F1
:09001D00E32289828A83E4932224
:10002600BC000BBE0029EF8DF084FFADF022E4CCBE
:10003600F875F008EF2FFFEE33FEEC33FCEE9DEC87
:10004600984005FCEE9DFE0FD5F0E9E4CEFD22EDCD
:10005600F8F5F0EE8420D21CFEADF075F008EF2F17
:10006600FFED33FD4007985006D5F0F222C398FD08
:050076000FD5F0EA22A5
:00000001FF
