:10052000C2AF91AC91EA91CCB17ED2AF9183715BB5
:060530001107110380F623
:1004EA0053877F759850438E40538EFE53890F432E
:0D04FA008920758BDB758DDBC2ABD28E22A5
:1005360051646010F5993099FDC299740129F9E466
:050546003AFA80EC22EE
:0202F200AB0758
:1002F4007E007C277D10518FEF2430F50BEBFF7EC1
:10030400007C277D10518F7E037FE8CFCDCFCECCEC
:10031400CE518FEF2430F50CEBFF7E007C037DE89B
:10032400518F7E007F64CFCDCFCECCCE518FEF24C2
:1003340030F50DEB75F06484E5F075F00A84243033
:10034400F50EEB75F00A84E5F02430F50FE4F510B2
:07035400FB7A00790BA136D2
:09058800CAB1BCE4A3BA003A00B8
:1004AC00438E805389F0438901758A74758C20C200
:1004BC008DD28CD2A9751464E4F511F512F51322C2
:02000B00810B67
:10040B00C0E0C0D0C28C758A7A758C20D28CE51670
:10041B00D3940040021516E514D394004004151430
:10042B00801C7514640511E511C3943C40107511C3
:10043B00000512E512943C40057512000513D0D04F
:03044B00D0E032CC
:10048300E51470247BFF7A057988B136AF1351F2F6
:100493007BFF7A05798FB136AF1251F27BFF7A0574
:0904A300798FB136AF1151F2223C
:0400030075870122DA
:0A057E00E4F5E175E13843E10622DF
:0400070043E110229F
:10044E000909B5B1C7B0CAAAB6C8A3BA000909BF8F
:10045E00ECB8C9CBC0C1CBA3ACBFAAB7A70D0A00DD
:10046E000909CBAEC1BFB3E4D7E3A3ACB2BBBFAAFD
:05047E00B7A70D0A0004
:1004CC0053B1F743B208C2B3439101439201D290A6
:0E04DC00E4F5C675C580751664F515C2B32229
:10054B00D297D296D295D294D293D292D291D2B74D
:05055B00D2B4D2B5226C
:1003C300B14BEFC39400403FEFD3940A5039EF147D
:1003D300B40A0050329003E225E050020583738192
:1003E30008810681048102810061FE61FC61FA617A
:1003F300F861F6C297C296C295C294C293C292C2E2
:0804030091C2B7C2B4C2B522D8
:10050700EFD394084005C2B37F0122EFC394035091
:0905170005D2B37F01227F00220E
:1005600075C58800000000E5C530E4FB53C5EFAF5A
:02057000C622A1
:10035B00E516706375166430B2057509018003E408
:10036B00F509B160C374FF9FF50AFF7E007C007D29
:10037B000A517DAC06AD07E431AAE4FBFA797F782C
:10038B00433108E4FBFAF9783F111431E38F087B12
:10039B00FF7A04794EB136AF0A51F2E5097BFF6063
:1003AB00087A04795BB13680067A04796EB136AF80
:0703BB000871C3AF08B10790
:0103C2002218
:10000D0002024FE86480F8E933E83360110460F0D0
:10001D00ED33EC337009E8FCE9FDEAFEEBFF220459
:10002D0060DED3EB9FEA9EE99DE8C2E78CF0C2F754
:10003D0095F0400CE8CCF8E9CDF9EACEFAEBCFFB20
:10004D0012021A85D0F05804700320D5B3E804705D
:10005D00075002B2D502025992D5EC0460F7E4CCF8
:10006D00C0E0C398F8603B94186008400DD0E0FBE9
:10007D00020231E4FBFAC9FC8028E830E406E4C949
:10008D00FBE4CAFCE830E305E4C9CACBFCE854073D
:10009D006010F8C3E913F9EA13FAEB13FBEC13FC48
:1000AD00D8F130F52FC3E49CFCEF9BFFEE9AFEEDEB
:1000BD0099FDD0E0FBEF4E4D4C701222DB03020296
:1000CD0056EC2CFCEF33FFEE33FEED33FDED30E758
:1000DD00EB020231EF2BFFEE3AFEED39FDD0E0FBE6
:1000ED0050130BBB0003020259ED13FDEE13FEEF8F
:0800FD0013FFEC13FC020231B9
:10010500020259EC5D046005E85904700302024FD0
:1001150012021A580460F6EC4860F2EC7004FDFE19
:10012500FF22C860DB2481C85009C39860025006CD
:100135000202569850CAF582E9294B4A7005AB82EE
:1001450002024575F0007C1A7880C3EF9BEE9AEDAC
:1001550099400DC3EF9BFFEE9AFEED99FDE842F045
:10016500DC23ACF0D0E0FFD0E0FED0E0FDAB822098
:10017500E7101BEB60BAEC2CFCEF33FFEE33FEED22
:1001850033FD020231E803F830E705C0F075F000F1
:10019500EF2FFFEE33FEED33FD40B830E7C280AA06
:1001A50075F020800E75F010800575F0087D007ED5
:1001B500007F003392D530D5031202E4EC334010B2
:1001C500EF33FFEE33FEED33FDEC33FCD5F0ED22DE
:0E01D500E5F0247EA2D513CC92E7CDCEFF221A
:1001E300EDD2E7CD33EC3392D524814006E4FFFE14
:1001F300FDFC22FCE4CFCECDCC24E0501174FF8073
:10020300EDC3CC13CCCD13CDCE13CECF13CF04700F
:07021300F030D5DE0202E429
:10021A00E9D2E7C933E833F892D5EDD2E7CD33EC2A
:07022A0033FC5002B2D522A3
:10023100EC30E7100FBF000C0EBE00080DBD00042E
:100241000BEB6014A2D5EB13FCED92E7FD2274FFDA
:10025100FCFDFEFF22E480F8A2D574FF13FC7D8033
:03026100E480EF47
:0300000002057284
:0C057200787FE4F6D8FD758116020520A4
:10026400BB010689828A83E0225002E722BBFE0298
:09027400E32289828A83E49322CB
:10027D00EF8DF0A4A8F0CF8CF0A428CE8DF0A42E95
:02028D00FE224F
:10028F00BC000BBE0029EF8DF084FFADF022E4CC53
:10029F00F875F008EF2FFFEE33FEEC33FCEE9DEC1C
:1002AF00984005FCEE9DFE0FD5F0E9E4CEFD22ED62
:1002BF00F8F5F0EE8420D21CFEADF075F008EF2FAC
:1002CF00FFED33FD4007985006D5F0F222C398FD9D
:0502DF000FD5F0EA223A
:0E02E400C3E49FFFE49EFEE49DFDE49CFC222B
:00000001FF
